{
  "contractName": "Greeter",
  "abi": [
    {
      "inputs": [],
      "stateMutability": "nonpayable",
      "type": "constructor"
    },
    {
      "anonymous": false,
      "inputs": [
        {
          "indexed": true,
          "internalType": "address",
          "name": "previousOwner",
          "type": "address"
        },
        {
          "indexed": true,
          "internalType": "address",
          "name": "newOwner",
          "type": "address"
        }
      ],
      "name": "OwnershipTransferred",
      "type": "event"
    },
    {
      "inputs": [],
      "name": "owner",
      "outputs": [
        {
          "internalType": "address",
          "name": "",
          "type": "address"
        }
      ],
      "stateMutability": "view",
      "type": "function",
      "constant": true
    },
    {
      "inputs": [],
      "name": "renounceOwnership",
      "outputs": [],
      "stateMutability": "nonpayable",
      "type": "function"
    },
    {
      "inputs": [
        {
          "internalType": "address",
          "name": "newOwner",
          "type": "address"
        }
      ],
      "name": "transferOwnership",
      "outputs": [],
      "stateMutability": "nonpayable",
      "type": "function"
    },
    {
      "inputs": [],
      "name": "greet",
      "outputs": [
        {
          "internalType": "string",
          "name": "",
          "type": "string"
        }
      ],
      "stateMutability": "view",
      "type": "function",
      "constant": true
    },
    {
      "inputs": [
        {
          "internalType": "string",
          "name": "greeting",
          "type": "string"
        }
      ],
      "name": "setGreeting",
      "outputs": [],
      "stateMutability": "nonpayable",
      "type": "function"
    }
  ],
  "bytecode": "0x60806040526040518060400160405280600d81526020017f48656c6c6f2c20576f726c6421000000000000000000000000000000000000008152506001908051906020019061004f929190610159565b5034801561005c57600080fd5b50600061006d61015160201b60201c565b9050806000806101000a81548173ffffffffffffffffffffffffffffffffffffffff021916908373ffffffffffffffffffffffffffffffffffffffff1602179055508073ffffffffffffffffffffffffffffffffffffffff16600073ffffffffffffffffffffffffffffffffffffffff167f8be0079c531659141344cd1fd0a4f28419497f9722a3daafe3b4186f6b6457e060405160405180910390a35033600260006101000a81548173ffffffffffffffffffffffffffffffffffffffff021916908373ffffffffffffffffffffffffffffffffffffffff1602179055506101fe565b600033905090565b828054600181600116156101000203166002900490600052602060002090601f016020900481019282601f1061019a57805160ff19168380011785556101c8565b828001600101855582156101c8579182015b828111156101c75782518255916020019190600101906101ac565b5b5090506101d591906101d9565b5090565b6101fb91905b808211156101f75760008160009055506001016101df565b5090565b90565b6107ea8061020d6000396000f3fe608060405234801561001057600080fd5b50600436106100575760003560e01c8063715018a61461005c5780638da5cb5b14610066578063a4136862146100b0578063cfae321714610129578063f2fde38b146101ac575b600080fd5b6100646101f0565b005b61006e61035e565b604051808273ffffffffffffffffffffffffffffffffffffffff1673ffffffffffffffffffffffffffffffffffffffff16815260200191505060405180910390f35b610127600480360360208110156100c657600080fd5b81019080803590602001906401000000008111156100e357600080fd5b8201836020820111156100f557600080fd5b8035906020019184600183028401116401000000008311171561011757600080fd5b9091929391929390505050610387565b005b61013161044c565b6040518080602001828103825283818151815260200191508051906020019080838360005b83811015610171578082015181840152602081019050610156565b50505050905090810190601f16801561019e5780820380516001836020036101000a031916815260200191505b509250505060405180910390f35b6101ee600480360360208110156101c257600080fd5b81019080803573ffffffffffffffffffffffffffffffffffffffff1690602001909291905050506104ee565b005b6101f86106e1565b73ffffffffffffffffffffffffffffffffffffffff1661021661035e565b73ffffffffffffffffffffffffffffffffffffffff161461029f576040517f08c379a00000000000000000000000000000000000000000000000000000000081526004018080602001828103825260208152602001807f4f776e61626c653a2063616c6c6572206973206e6f7420746865206f776e657281525060200191505060405180910390fd5b600073ffffffffffffffffffffffffffffffffffffffff166000809054906101000a900473ffffffffffffffffffffffffffffffffffffffff1673ffffffffffffffffffffffffffffffffffffffff167f8be0079c531659141344cd1fd0a4f28419497f9722a3daafe3b4186f6b6457e060405160405180910390a360008060006101000a81548173ffffffffffffffffffffffffffffffffffffffff021916908373ffffffffffffffffffffffffffffffffffffffff160217905550565b60008060009054906101000a900473ffffffffffffffffffffffffffffffffffffffff16905090565b61038f6106e1565b73ffffffffffffffffffffffffffffffffffffffff166103ad61035e565b73ffffffffffffffffffffffffffffffffffffffff1614610436576040517f08c379a00000000000000000000000000000000000000000000000000000000081526004018080602001828103825260208152602001807f4f776e61626c653a2063616c6c6572206973206e6f7420746865206f776e657281525060200191505060405180910390fd5b8181600191906104479291906106e9565b505050565b606060018054600181600116156101000203166002900480601f0160208091040260200160405190810160405280929190818152602001828054600181600116156101000203166002900480156104e45780601f106104b9576101008083540402835291602001916104e4565b820191906000526020600020905b8154815290600101906020018083116104c757829003601f168201915b5050505050905090565b6104f66106e1565b73ffffffffffffffffffffffffffffffffffffffff1661051461035e565b73ffffffffffffffffffffffffffffffffffffffff161461059d576040517f08c379a00000000000000000000000000000000000000000000000000000000081526004018080602001828103825260208152602001807f4f776e61626c653a2063616c6c6572206973206e6f7420746865206f776e657281525060200191505060405180910390fd5b600073ffffffffffffffffffffffffffffffffffffffff168173ffffffffffffffffffffffffffffffffffffffff161415610623576040517f08c379a000000000000000000000000000000000000000000000000000000000815260040180806020018281038252602681526020018061078f6026913960400191505060405180910390fd5b8073ffffffffffffffffffffffffffffffffffffffff166000809054906101000a900473ffffffffffffffffffffffffffffffffffffffff1673ffffffffffffffffffffffffffffffffffffffff167f8be0079c531659141344cd1fd0a4f28419497f9722a3daafe3b4186f6b6457e060405160405180910390a3806000806101000a81548173ffffffffffffffffffffffffffffffffffffffff021916908373ffffffffffffffffffffffffffffffffffffffff16021790555050565b600033905090565b828054600181600116156101000203166002900490600052602060002090601f016020900481019282601f1061072a57803560ff1916838001178555610758565b82800160010185558215610758579182015b8281111561075757823582559160200191906001019061073c565b5b5090506107659190610769565b5090565b61078b91905b8082111561078757600081600090555060010161076f565b5090565b9056fe4f776e61626c653a206e6577206f776e657220697320746865207a65726f2061646472657373a2646970667358221220202cc7f547f6ce8ae7c18a71024480a07d329814c258dd150bdb66a295fe02e864736f6c63430006000033",
  "source": "pragma solidity >= 0.4.0 < 0.7.0;\n\nimport \"openzeppelin-solidity/contracts/access/Ownable.sol\";\n\ncontract Greeter is Ownable {\n  string private _greeting = \"Hello, World!\";\n  address private _owner;\n\n  constructor() public {\n    _owner = msg.sender;\n  }\n\n  function greet() external view returns(string memory) {\n    return _greeting;\n  }\n\n  function setGreeting(string calldata greeting) external onlyOwner {\n    _greeting = greeting;\n  }\n}\n",
  "sourcePath": "/Users/yu/projects/greeter-dapp/contracts/Greeter.sol",
  "compiler": {
    "name": "solc",
    "version": "0.6.0+commit.26b70077.Emscripten.clang"
  },
  "schemaVersion": "3.4.0",
  "updatedAt": "2021-04-25T15:55:05.468Z",
  "networkType": "ethereum",
  "devdoc": {
    "methods": {
      "owner()": {
        "details": "Returns the address of the current owner."
      },
      "renounceOwnership()": {
        "details": "Leaves the contract without owner. It will not be possible to call `onlyOwner` functions anymore. Can only be called by the current owner.     * NOTE: Renouncing ownership will leave the contract without an owner, thereby removing any functionality that is only available to the owner."
      },
      "transferOwnership(address)": {
        "details": "Transfers ownership of the contract to a new account (`newOwner`). Can only be called by the current owner."
      }
    }
  },
  "userdoc": {
    "methods": {}
  }
}